{
  "contractName": "mytoken",
  "abi": [
    {
      "inputs": [],
      "stateMutability": "nonpayable",
      "type": "constructor"
    },
    {
      "anonymous": false,
      "inputs": [
        {
          "indexed": true,
          "internalType": "address",
          "name": "_owner",
          "type": "address"
        },
        {
          "indexed": true,
          "internalType": "address",
          "name": "_spender",
          "type": "address"
        },
        {
          "indexed": false,
          "internalType": "uint256",
          "name": "_value",
          "type": "uint256"
        }
      ],
      "name": "Approval",
      "type": "event"
    },
    {
      "anonymous": false,
      "inputs": [
        {
          "indexed": true,
          "internalType": "address",
          "name": "_from",
          "type": "address"
        },
        {
          "indexed": true,
          "internalType": "address",
          "name": "_to",
          "type": "address"
        },
        {
          "indexed": false,
          "internalType": "uint256",
          "name": "_value",
          "type": "uint256"
        }
      ],
      "name": "Transfer",
      "type": "event"
    },
    {
      "inputs": [
        {
          "internalType": "address",
          "name": "",
          "type": "address"
        },
        {
          "internalType": "address",
          "name": "",
          "type": "address"
        }
      ],
      "name": "allowance",
      "outputs": [
        {
          "internalType": "uint256",
          "name": "",
          "type": "uint256"
        }
      ],
      "stateMutability": "view",
      "type": "function",
      "constant": true
    },
    {
      "inputs": [
        {
          "internalType": "address",
          "name": "",
          "type": "address"
        }
      ],
      "name": "balanceof",
      "outputs": [
        {
          "internalType": "uint256",
          "name": "",
          "type": "uint256"
        }
      ],
      "stateMutability": "view",
      "type": "function",
      "constant": true
    },
    {
      "inputs": [],
      "name": "decimals",
      "outputs": [
        {
          "internalType": "uint256",
          "name": "",
          "type": "uint256"
        }
      ],
      "stateMutability": "view",
      "type": "function",
      "constant": true
    },
    {
      "inputs": [],
      "name": "name",
      "outputs": [
        {
          "internalType": "string",
          "name": "",
          "type": "string"
        }
      ],
      "stateMutability": "view",
      "type": "function",
      "constant": true
    },
    {
      "inputs": [],
      "name": "standard",
      "outputs": [
        {
          "internalType": "string",
          "name": "",
          "type": "string"
        }
      ],
      "stateMutability": "view",
      "type": "function",
      "constant": true
    },
    {
      "inputs": [],
      "name": "symbol",
      "outputs": [
        {
          "internalType": "string",
          "name": "",
          "type": "string"
        }
      ],
      "stateMutability": "view",
      "type": "function",
      "constant": true
    },
    {
      "inputs": [],
      "name": "totalSupply",
      "outputs": [
        {
          "internalType": "uint256",
          "name": "",
          "type": "uint256"
        }
      ],
      "stateMutability": "view",
      "type": "function",
      "constant": true
    },
    {
      "inputs": [
        {
          "internalType": "address",
          "name": "_to",
          "type": "address"
        },
        {
          "internalType": "uint256",
          "name": "_value",
          "type": "uint256"
        }
      ],
      "name": "transfer",
      "outputs": [
        {
          "internalType": "bool",
          "name": "success",
          "type": "bool"
        }
      ],
      "stateMutability": "nonpayable",
      "type": "function"
    },
    {
      "inputs": [
        {
          "internalType": "address",
          "name": "_spender",
          "type": "address"
        },
        {
          "internalType": "uint256",
          "name": "_value",
          "type": "uint256"
        }
      ],
      "name": "approve",
      "outputs": [
        {
          "internalType": "bool",
          "name": "success",
          "type": "bool"
        }
      ],
      "stateMutability": "nonpayable",
      "type": "function"
    },
    {
      "inputs": [
        {
          "internalType": "address",
          "name": "_from",
          "type": "address"
        },
        {
          "internalType": "address",
          "name": "_to",
          "type": "address"
        },
        {
          "internalType": "uint256",
          "name": "_value",
          "type": "uint256"
        }
      ],
      "name": "transferfrom",
      "outputs": [
        {
          "internalType": "bool",
          "name": "success",
          "type": "bool"
        }
      ],
      "stateMutability": "nonpayable",
      "type": "function"
    },
    {
      "inputs": [
        {
          "internalType": "address",
          "name": "_a",
          "type": "address"
        }
      ],
      "name": "balanceOf",
      "outputs": [
        {
          "internalType": "uint256",
          "name": "balance",
          "type": "uint256"
        }
      ],
      "stateMutability": "view",
      "type": "function",
      "constant": true
    }
  ],
  "bytecode": "0x60806040526040518060400160405280600781526020017f6d79746f6b656e0000000000000000000000000000000000000000000000000081525060009080519060200190620000519291906200015b565b506040518060400160405280600381526020017f6d796d0000000000000000000000000000000000000000000000000000000000815250600190805190602001906200009f9291906200015b565b506040518060400160405280600681526020017f6d796d207631000000000000000000000000000000000000000000000000000081525060029080519060200190620000ed9291906200015b565b5069d3c21bcecceda100000060035560126004553480156200010e57600080fd5b50600354600560003373ffffffffffffffffffffffffffffffffffffffff1673ffffffffffffffffffffffffffffffffffffffff1681526020019081526020016000208190555062000270565b82805462000169906200023a565b90600052602060002090601f0160209004810192826200018d5760008555620001d9565b82601f10620001a857805160ff1916838001178555620001d9565b82800160010185558215620001d9579182015b82811115620001d8578251825591602001919060010190620001bb565b5b509050620001e89190620001ec565b5090565b5b8082111562000207576000816000905550600101620001ed565b5090565b7f4e487b7100000000000000000000000000000000000000000000000000000000600052602260045260246000fd5b600060028204905060018216806200025357607f821691505b602082108114156200026a57620002696200020b565b5b50919050565b610d8580620002806000396000f3fe608060405234801561001057600080fd5b50600436106100a95760003560e01c80635a3b7e42116100715780635a3b7e421461016857806363b0545f1461018657806370a08231146101b657806395d89b41146101e6578063a9059cbb14610204578063dd62ed3e14610234576100a9565b806306fdde03146100ae578063095ea7b3146100cc57806318160ddd146100fc578063313ce5671461011a5780633d64125b14610138575b600080fd5b6100b6610264565b6040516100c39190610a1a565b60405180910390f35b6100e660048036038101906100e19190610ad5565b6102f2565b6040516100f39190610b30565b60405180910390f35b6101046103e4565b6040516101119190610b5a565b60405180910390f35b6101226103ea565b60405161012f9190610b5a565b60405180910390f35b610152600480360381019061014d9190610b75565b6103f0565b60405161015f9190610b5a565b60405180910390f35b610170610408565b60405161017d9190610a1a565b60405180910390f35b6101a0600480360381019061019b9190610ba2565b610496565b6040516101ad9190610b30565b60405180910390f35b6101d060048036038101906101cb9190610b75565b61071c565b6040516101dd9190610b5a565b60405180910390f35b6101ee610765565b6040516101fb9190610a1a565b60405180910390f35b61021e60048036038101906102199190610ad5565b6107f3565b60405161022b9190610b30565b60405180910390f35b61024e60048036038101906102499190610bf5565b61095c565b60405161025b9190610b5a565b60405180910390f35b6000805461027190610c64565b80601f016020809104026020016040519081016040528092919081815260200182805461029d90610c64565b80156102ea5780601f106102bf576101008083540402835291602001916102ea565b820191906000526020600020905b8154815290600101906020018083116102cd57829003601f168201915b505050505081565b600081600660003373ffffffffffffffffffffffffffffffffffffffff1673ffffffffffffffffffffffffffffffffffffffff16815260200190815260200160002060008573ffffffffffffffffffffffffffffffffffffffff1673ffffffffffffffffffffffffffffffffffffffff168152602001908152602001600020819055508273ffffffffffffffffffffffffffffffffffffffff163373ffffffffffffffffffffffffffffffffffffffff167f8c5be1e5ebec7d5bd14f71427d1e84f3dd0314c0f7b2291e5b200ac8c7c3b925846040516103d29190610b5a565b60405180910390a36001905092915050565b60035481565b60045481565b60056020528060005260406000206000915090505481565b6002805461041590610c64565b80601f016020809104026020016040519081016040528092919081815260200182805461044190610c64565b801561048e5780601f106104635761010080835404028352916020019161048e565b820191906000526020600020905b81548152906001019060200180831161047157829003601f168201915b505050505081565b6000600560008573ffffffffffffffffffffffffffffffffffffffff1673ffffffffffffffffffffffffffffffffffffffff168152602001908152602001600020548211156104e457600080fd5b600660008573ffffffffffffffffffffffffffffffffffffffff1673ffffffffffffffffffffffffffffffffffffffff16815260200190815260200160002060003373ffffffffffffffffffffffffffffffffffffffff1673ffffffffffffffffffffffffffffffffffffffff1681526020019081526020016000205482111561056d57600080fd5b81600560008573ffffffffffffffffffffffffffffffffffffffff1673ffffffffffffffffffffffffffffffffffffffff16815260200190815260200160002060008282546105bc9190610cc5565b9250508190555081600560008673ffffffffffffffffffffffffffffffffffffffff1673ffffffffffffffffffffffffffffffffffffffff16815260200190815260200160002060008282546106129190610d1b565b9250508190555081600660008673ffffffffffffffffffffffffffffffffffffffff1673ffffffffffffffffffffffffffffffffffffffff16815260200190815260200160002060003373ffffffffffffffffffffffffffffffffffffffff1673ffffffffffffffffffffffffffffffffffffffff16815260200190815260200160002060008282546106a59190610d1b565b925050819055508273ffffffffffffffffffffffffffffffffffffffff168473ffffffffffffffffffffffffffffffffffffffff167fddf252ad1be2c89b69c2b068fc378daa952ba7f163c4a11628f55a4df523b3ef846040516107099190610b5a565b60405180910390a3600190509392505050565b6000600560008373ffffffffffffffffffffffffffffffffffffffff1673ffffffffffffffffffffffffffffffffffffffff168152602001908152602001600020549050919050565b6001805461077290610c64565b80601f016020809104026020016040519081016040528092919081815260200182805461079e90610c64565b80156107eb5780601f106107c0576101008083540402835291602001916107eb565b820191906000526020600020905b8154815290600101906020018083116107ce57829003601f168201915b505050505081565b600081600560003373ffffffffffffffffffffffffffffffffffffffff1673ffffffffffffffffffffffffffffffffffffffff16815260200190815260200160002054101561084157600080fd5b81600560003373ffffffffffffffffffffffffffffffffffffffff1673ffffffffffffffffffffffffffffffffffffffff16815260200190815260200160002060008282546108909190610d1b565b9250508190555081600560008573ffffffffffffffffffffffffffffffffffffffff1673ffffffffffffffffffffffffffffffffffffffff16815260200190815260200160002060008282546108e69190610cc5565b925050819055508273ffffffffffffffffffffffffffffffffffffffff163373ffffffffffffffffffffffffffffffffffffffff167fddf252ad1be2c89b69c2b068fc378daa952ba7f163c4a11628f55a4df523b3ef8460405161094a9190610b5a565b60405180910390a36001905092915050565b6006602052816000526040600020602052806000526040600020600091509150505481565b600081519050919050565b600082825260208201905092915050565b60005b838110156109bb5780820151818401526020810190506109a0565b838111156109ca576000848401525b50505050565b6000601f19601f8301169050919050565b60006109ec82610981565b6109f6818561098c565b9350610a0681856020860161099d565b610a0f816109d0565b840191505092915050565b60006020820190508181036000830152610a3481846109e1565b905092915050565b600080fd5b600073ffffffffffffffffffffffffffffffffffffffff82169050919050565b6000610a6c82610a41565b9050919050565b610a7c81610a61565b8114610a8757600080fd5b50565b600081359050610a9981610a73565b92915050565b6000819050919050565b610ab281610a9f565b8114610abd57600080fd5b50565b600081359050610acf81610aa9565b92915050565b60008060408385031215610aec57610aeb610a3c565b5b6000610afa85828601610a8a565b9250506020610b0b85828601610ac0565b9150509250929050565b60008115159050919050565b610b2a81610b15565b82525050565b6000602082019050610b456000830184610b21565b92915050565b610b5481610a9f565b82525050565b6000602082019050610b6f6000830184610b4b565b92915050565b600060208284031215610b8b57610b8a610a3c565b5b6000610b9984828501610a8a565b91505092915050565b600080600060608486031215610bbb57610bba610a3c565b5b6000610bc986828701610a8a565b9350506020610bda86828701610a8a565b9250506040610beb86828701610ac0565b9150509250925092565b60008060408385031215610c0c57610c0b610a3c565b5b6000610c1a85828601610a8a565b9250506020610c2b85828601610a8a565b9150509250929050565b7f4e487b7100000000000000000000000000000000000000000000000000000000600052602260045260246000fd5b60006002820490506001821680610c7c57607f821691505b60208210811415610c9057610c8f610c35565b5b50919050565b7f4e487b7100000000000000000000000000000000000000000000000000000000600052601160045260246000fd5b6000610cd082610a9f565b9150610cdb83610a9f565b9250827fffffffffffffffffffffffffffffffffffffffffffffffffffffffffffffffff03821115610d1057610d0f610c96565b5b828201905092915050565b6000610d2682610a9f565b9150610d3183610a9f565b925082821015610d4457610d43610c96565b5b82820390509291505056fea26469706673582212205ce2c1196d5cba13516937a467a6caaa864e55e7f5b3cffaf18c567e0ea3fae264736f6c63430008090033",
  "immutableReferences": {},
  "source": "//SPDX-License-Identifier: MIT\r\npragma solidity ^0.8.9;\r\ncontract mytoken{\r\nstring public name =\"mytoken\";\r\nstring public symbol=\"mym\";\r\nstring public standard=\"mym v1\";\r\nuint256 public  totalSupply=1000000000000000000000000 ; //1 million\r\nuint256 public decimals=18;\r\n\r\n//event\r\nevent Transfer(\r\naddress indexed _from,\r\naddress indexed _to,\r\nuint256 _value\r\n);\r\n\r\n//event approval\r\nevent Approval(\r\n    address indexed _owner,\r\n    address indexed _spender,\r\n    uint256 _value\r\n);\r\n\r\n//mapping\r\nmapping(address=>uint256)public   balanceof;\r\nmapping(address => mapping(address => uint256))public allowance;\r\n\r\n    \r\n    constructor(){\r\n        balanceof[msg.sender]=totalSupply;\r\n    }\r\n\r\n\r\n    //transfer\r\n    function transfer(address _to,uint256 _value)public returns(bool success){\r\n    require(balanceof[msg.sender]>=_value);\r\n    //tranfer\r\n    balanceof[msg.sender]-=_value;\r\n    balanceof[_to]+=_value;\r\n    emit Transfer(msg.sender,_to,_value);\r\n    return true;\r\n    }\r\n\r\n    //Delegated tranfer(sender himself donot initiate the tranfer)approve,tranferfrom,allowance\r\n    function approve(address _spender,uint256 _value)public returns(bool success){\r\n     //allowance\r\n     allowance[msg.sender][_spender]=_value;\r\n\r\n\r\n        emit Approval(msg.sender, _spender, _value);\r\n        \r\n        return true;\r\n\r\n    }\r\n    //transferfrom\r\n    function transferfrom(address _from,address _to,uint256 _value)public returns(bool success){\r\n        require(_value<=balanceof[_from]);\r\n        require(_value<=allowance[_from][msg.sender]);\r\n        balanceof[_to]+=_value;\r\n        balanceof[_from]-=_value;\r\n        allowance[_from][msg.sender]-=_value;\r\n        emit  Transfer(_from, _to, _value);\r\n        return true;\r\n\r\n    }\r\n     function balanceOf(address _a)public view returns(uint256 balance){\r\n       \r\n       return  balanceof[_a] ;\r\n\r\n    } \r\n     \r\n}",
  "sourcePath": "D:\\Users\\Akshit\\Documents\\swap sc\\src\\contracts\\mytoken.sol",
  "compiler": {
    "name": "solc",
    "version": "0.8.9+commit.e5eed63a.Emscripten.clang"
  },
  "schemaVersion": "3.4.3",
  "updatedAt": "2021-12-01T10:25:03.753Z",
  "networkType": "ethereum",
  "devdoc": {
    "kind": "dev",
    "methods": {},
    "version": 1
  },
  "userdoc": {
    "kind": "user",
    "methods": {},
    "version": 1
  }
}