{
  "contractName": "swap",
  "abi": [
    {
      "inputs": [
        {
          "internalType": "contract mytoken",
          "name": "_token",
          "type": "address"
        }
      ],
      "stateMutability": "nonpayable",
      "type": "constructor"
    },
    {
      "anonymous": false,
      "inputs": [
        {
          "indexed": true,
          "internalType": "address",
          "name": "account",
          "type": "address"
        },
        {
          "indexed": true,
          "internalType": "address",
          "name": "token",
          "type": "address"
        },
        {
          "indexed": false,
          "internalType": "uint256",
          "name": "amount",
          "type": "uint256"
        },
        {
          "indexed": false,
          "internalType": "uint256",
          "name": "price",
          "type": "uint256"
        }
      ],
      "name": "TokensPur",
      "type": "event"
    },
    {
      "anonymous": false,
      "inputs": [
        {
          "indexed": true,
          "internalType": "address",
          "name": "account",
          "type": "address"
        },
        {
          "indexed": false,
          "internalType": "uint256",
          "name": "amount",
          "type": "uint256"
        }
      ],
      "name": "buyf",
      "type": "event"
    },
    {
      "anonymous": false,
      "inputs": [
        {
          "indexed": true,
          "internalType": "address",
          "name": "account",
          "type": "address"
        },
        {
          "indexed": true,
          "internalType": "address",
          "name": "token",
          "type": "address"
        },
        {
          "indexed": false,
          "internalType": "uint256",
          "name": "amount",
          "type": "uint256"
        },
        {
          "indexed": false,
          "internalType": "uint256",
          "name": "price",
          "type": "uint256"
        }
      ],
      "name": "tokensold",
      "type": "event"
    },
    {
      "inputs": [],
      "name": "name",
      "outputs": [
        {
          "internalType": "string",
          "name": "",
          "type": "string"
        }
      ],
      "stateMutability": "view",
      "type": "function",
      "constant": true
    },
    {
      "inputs": [],
      "name": "rate",
      "outputs": [
        {
          "internalType": "uint256",
          "name": "",
          "type": "uint256"
        }
      ],
      "stateMutability": "view",
      "type": "function",
      "constant": true
    },
    {
      "inputs": [],
      "name": "token",
      "outputs": [
        {
          "internalType": "contract mytoken",
          "name": "",
          "type": "address"
        }
      ],
      "stateMutability": "view",
      "type": "function",
      "constant": true
    },
    {
      "inputs": [],
      "name": "buytoken",
      "outputs": [],
      "stateMutability": "payable",
      "type": "function",
      "payable": true
    },
    {
      "inputs": [
        {
          "internalType": "uint256",
          "name": "_amount",
          "type": "uint256"
        }
      ],
      "name": "selltoken",
      "outputs": [],
      "stateMutability": "nonpayable",
      "type": "function"
    }
  ],
  "bytecode": "0x60806040526040518060400160405280600581526020017f73776170700000000000000000000000000000000000000000000000000000008152506000908051906020019062000051929190620000d2565b5060646002553480156200006457600080fd5b5060405162000dfa38038062000dfa83398181016040528101906200008a919062000200565b80600160006101000a81548173ffffffffffffffffffffffffffffffffffffffff021916908373ffffffffffffffffffffffffffffffffffffffff1602179055505062000297565b828054620000e09062000261565b90600052602060002090601f01602090048101928262000104576000855562000150565b82601f106200011f57805160ff191683800117855562000150565b8280016001018555821562000150579182015b828111156200014f57825182559160200191906001019062000132565b5b5090506200015f919062000163565b5090565b5b808211156200017e57600081600090555060010162000164565b5090565b600080fd5b600073ffffffffffffffffffffffffffffffffffffffff82169050919050565b6000620001b48262000187565b9050919050565b6000620001c882620001a7565b9050919050565b620001da81620001bb565b8114620001e657600080fd5b50565b600081519050620001fa81620001cf565b92915050565b60006020828403121562000219576200021862000182565b5b60006200022984828501620001e9565b91505092915050565b7f4e487b7100000000000000000000000000000000000000000000000000000000600052602260045260246000fd5b600060028204905060018216806200027a57607f821691505b6020821081141562000291576200029062000232565b5b50919050565b610b5380620002a76000396000f3fe60806040526004361061004a5760003560e01c806306fdde031461004f5780632c4e722e1461007a57806393316cdf146100a5578063aad519c1146100ce578063fc0c546a146100d8575b600080fd5b34801561005b57600080fd5b50610064610103565b6040516100719190610719565b60405180910390f35b34801561008657600080fd5b5061008f610191565b60405161009c9190610754565b60405180910390f35b3480156100b157600080fd5b506100cc60048036038101906100c791906107a0565b610197565b005b6100d66103f5565b005b3480156100e457600080fd5b506100ed61065a565b6040516100fa919061084c565b60405180910390f35b6000805461011090610896565b80601f016020809104026020016040519081016040528092919081815260200182805461013c90610896565b80156101895780601f1061015e57610100808354040283529160200191610189565b820191906000526020600020905b81548152906001019060200180831161016c57829003601f168201915b505050505081565b60025481565b80600160009054906101000a900473ffffffffffffffffffffffffffffffffffffffff1673ffffffffffffffffffffffffffffffffffffffff166370a08231336040518263ffffffff1660e01b81526004016101f391906108e9565b60206040518083038186803b15801561020b57600080fd5b505afa15801561021f573d6000803e3d6000fd5b505050506040513d601f19601f820116820180604052508101906102439190610919565b101561024e57600080fd5b60006002548261025e91906109a4565b90508047101561026d57600080fd5b600160009054906101000a900473ffffffffffffffffffffffffffffffffffffffff1673ffffffffffffffffffffffffffffffffffffffff166363b0545f3330856040518463ffffffff1660e01b81526004016102cc939291906109d5565b602060405180830381600087803b1580156102e657600080fd5b505af11580156102fa573d6000803e3d6000fd5b505050506040513d601f19601f8201168201806040525081019061031e9190610a44565b503373ffffffffffffffffffffffffffffffffffffffff166108fc829081150290604051600060405180830381858888f19350505050158015610365573d6000803e3d6000fd5b50600160009054906101000a900473ffffffffffffffffffffffffffffffffffffffff1673ffffffffffffffffffffffffffffffffffffffff163373ffffffffffffffffffffffffffffffffffffffff167fe8d20fab0de9ac98cc32aa93d130fb5e1da1b09d06f19c30226299772dace467846002546040516103e9929190610a71565b60405180910390a35050565b6000600254346104059190610a9a565b905080600160009054906101000a900473ffffffffffffffffffffffffffffffffffffffff1673ffffffffffffffffffffffffffffffffffffffff166370a08231306040518263ffffffff1660e01b815260040161046391906108e9565b60206040518083038186803b15801561047b57600080fd5b505afa15801561048f573d6000803e3d6000fd5b505050506040513d601f19601f820116820180604052508101906104b39190610919565b10156104be57600080fd5b6000600160009054906101000a900473ffffffffffffffffffffffffffffffffffffffff1673ffffffffffffffffffffffffffffffffffffffff1663a9059cbb33846040518363ffffffff1660e01b815260040161051d929190610af4565b602060405180830381600087803b15801561053757600080fd5b505af115801561054b573d6000803e3d6000fd5b505050506040513d601f19601f8201168201806040525081019061056f9190610a44565b9050801561060757600160009054906101000a900473ffffffffffffffffffffffffffffffffffffffff1673ffffffffffffffffffffffffffffffffffffffff163373ffffffffffffffffffffffffffffffffffffffff167fda92be6b0a7c84b4b896329a18fadf012f3fe546ba887203a657bcb840de10f5846002546040516105fa929190610a71565b60405180910390a3610656565b3373ffffffffffffffffffffffffffffffffffffffff167f3b728e421e5a9e009717957542d19a8df9f553e2d88dd1ce34ab3432a2b135448360405161064d9190610754565b60405180910390a25b5050565b600160009054906101000a900473ffffffffffffffffffffffffffffffffffffffff1681565b600081519050919050565b600082825260208201905092915050565b60005b838110156106ba57808201518184015260208101905061069f565b838111156106c9576000848401525b50505050565b6000601f19601f8301169050919050565b60006106eb82610680565b6106f5818561068b565b935061070581856020860161069c565b61070e816106cf565b840191505092915050565b6000602082019050818103600083015261073381846106e0565b905092915050565b6000819050919050565b61074e8161073b565b82525050565b60006020820190506107696000830184610745565b92915050565b600080fd5b61077d8161073b565b811461078857600080fd5b50565b60008135905061079a81610774565b92915050565b6000602082840312156107b6576107b561076f565b5b60006107c48482850161078b565b91505092915050565b600073ffffffffffffffffffffffffffffffffffffffff82169050919050565b6000819050919050565b600061081261080d610808846107cd565b6107ed565b6107cd565b9050919050565b6000610824826107f7565b9050919050565b600061083682610819565b9050919050565b6108468161082b565b82525050565b6000602082019050610861600083018461083d565b92915050565b7f4e487b7100000000000000000000000000000000000000000000000000000000600052602260045260246000fd5b600060028204905060018216806108ae57607f821691505b602082108114156108c2576108c1610867565b5b50919050565b60006108d3826107cd565b9050919050565b6108e3816108c8565b82525050565b60006020820190506108fe60008301846108da565b92915050565b60008151905061091381610774565b92915050565b60006020828403121561092f5761092e61076f565b5b600061093d84828501610904565b91505092915050565b7f4e487b7100000000000000000000000000000000000000000000000000000000600052601260045260246000fd5b7f4e487b7100000000000000000000000000000000000000000000000000000000600052601160045260246000fd5b60006109af8261073b565b91506109ba8361073b565b9250826109ca576109c9610946565b5b828204905092915050565b60006060820190506109ea60008301866108da565b6109f760208301856108da565b610a046040830184610745565b949350505050565b60008115159050919050565b610a2181610a0c565b8114610a2c57600080fd5b50565b600081519050610a3e81610a18565b92915050565b600060208284031215610a5a57610a5961076f565b5b6000610a6884828501610a2f565b91505092915050565b6000604082019050610a866000830185610745565b610a936020830184610745565b9392505050565b6000610aa58261073b565b9150610ab08361073b565b9250817fffffffffffffffffffffffffffffffffffffffffffffffffffffffffffffffff0483118215151615610ae957610ae8610975565b5b828202905092915050565b6000604082019050610b0960008301856108da565b610b166020830184610745565b939250505056fea264697066735822122089c0658e9aed6eb773e5c5925ae237808b4f8153ae67b5114024b5381a9f754564736f6c63430008090033",
  "immutableReferences": {},
  "source": "//SPDX-License-Identifier: MIT\r\npragma solidity ^0.8.9;\r\nimport \"./mytoken.sol\";\r\n\r\n\r\ncontract swap{\r\n    string public name=\"swapp\";\r\n    mytoken public token;\r\n    uint256 public rate=100;\r\n   \r\n   //constructor\r\n    constructor(mytoken _token){\r\n     token=_token;\r\n    }\r\n\r\n    event TokensPur(\r\n     address indexed account,\r\n     address indexed token,\r\n     uint256 amount,\r\n     uint256 price);\r\n   \r\n   \r\n    event buyf(\r\n     address indexed account,\r\n     uint256 amount\r\n     );\r\n\r\n     event tokensold(\r\n     address indexed account,\r\n     address indexed token,\r\n     uint256 amount,\r\n     uint256 price \r\n     );\r\n\r\n\r\n    function buytoken() public payable{\r\n        //eth*no. of token receive per ether (also use pure or zeepline)\r\n        uint256 tokena = msg.value * rate;\r\n        //token av\r\n        require(token.balanceOf(address(this)) >= tokena);\r\n\r\n       bool res = token.transfer(msg.sender, tokena);\r\n       if(res)\r\n       {\r\n       emit TokensPur(msg.sender, address(token), tokena, rate);\r\n       }\r\n       else\r\n       {\r\n       emit buyf(msg.sender, tokena);\r\n       }      \r\n    }\r\n\r\n\r\n    function selltoken(uint256 _amount)public  {\r\n    \r\n    require(token.balanceOf(msg.sender)>=_amount);\r\n\r\n    uint256 ethe= _amount/rate;\r\n    require(address(this).balance>=ethe);\r\n  \r\n    //sending coin\r\n     token.transferfrom(msg.sender,address(this), _amount);\r\n    //ether tranfer function\r\n     payable(msg.sender).transfer(ethe);\r\n\r\n     emit tokensold(msg.sender,address(token),_amount,rate);\r\n    }\r\n\r\n    \r\n\r\n  \r\n}",
  "sourcePath": "D:\\Users\\Akshit\\Documents\\swap sc\\src\\contracts\\swap.sol",
  "compiler": {
    "name": "solc",
    "version": "0.8.9+commit.e5eed63a.Emscripten.clang"
  },
  "schemaVersion": "3.4.3",
  "updatedAt": "2021-12-01T10:25:03.625Z",
  "networkType": "ethereum",
  "devdoc": {
    "kind": "dev",
    "methods": {},
    "version": 1
  },
  "userdoc": {
    "kind": "user",
    "methods": {},
    "version": 1
  }
}